{
  "_format": "hh-sol-artifact-1",
  "contractName": "BuyMeACoffee",
  "sourceName": "contracts/BuyMeACoffee.sol",
  "abi": [
    {
      "inputs": [],
      "stateMutability": "nonpayable",
      "type": "constructor"
    },
    {
      "anonymous": false,
      "inputs": [
        {
          "indexed": true,
          "internalType": "address",
          "name": "from",
          "type": "address"
        },
        {
          "indexed": false,
          "internalType": "uint256",
          "name": "timestamp",
          "type": "uint256"
        },
        {
          "indexed": false,
          "internalType": "string",
          "name": "name",
          "type": "string"
        },
        {
          "indexed": false,
          "internalType": "string",
          "name": "message",
          "type": "string"
        }
      ],
      "name": "NewMemo",
      "type": "event"
    },
    {
      "inputs": [
        {
          "internalType": "string",
          "name": "_name",
          "type": "string"
        },
        {
          "internalType": "string",
          "name": "_message",
          "type": "string"
        }
      ],
      "name": "buyCoffee",
      "outputs": [],
      "stateMutability": "payable",
      "type": "function"
    },
    {
      "inputs": [],
      "name": "getMemos",
      "outputs": [
        {
          "components": [
            {
              "internalType": "address",
              "name": "from",
              "type": "address"
            },
            {
              "internalType": "uint256",
              "name": "timestamp",
              "type": "uint256"
            },
            {
              "internalType": "string",
              "name": "name",
              "type": "string"
            },
            {
              "internalType": "string",
              "name": "message",
              "type": "string"
            }
          ],
          "internalType": "struct BuyMeACoffee.Memo[]",
          "name": "",
          "type": "tuple[]"
        }
      ],
      "stateMutability": "view",
      "type": "function"
    },
    {
      "inputs": [],
      "name": "withdrawTips",
      "outputs": [],
      "stateMutability": "nonpayable",
      "type": "function"
    },
    {
      "inputs": [
        {
          "internalType": "address payable",
          "name": "_newOwner",
          "type": "address"
        }
      ],
      "name": "withdrawTipsTransfer",
      "outputs": [],
      "stateMutability": "nonpayable",
      "type": "function"
    }
  ],
  "bytecode": "0x608060405234801561001057600080fd5b5033600160006101000a81548173ffffffffffffffffffffffffffffffffffffffff021916908373ffffffffffffffffffffffffffffffffffffffff160217905550610c80806100616000396000f3fe60806040526004361061003f5760003560e01c8063204206e1146100445780633aaa74b214610060578063865c517214610077578063c4607afb146100a2575b600080fd5b61005e600480360381019061005991906106b2565b6100cb565b005b34801561006c57600080fd5b50610075610253565b005b34801561008357600080fd5b5061008c6102b5565b60405161009991906108f6565b60405180910390f35b3480156100ae57600080fd5b506100c960048036038101906100c49190610689565b610498565b005b6000341161010e576040517f08c379a000000000000000000000000000000000000000000000000000000000815260040161010590610918565b60405180910390fd5b600060405180608001604052803373ffffffffffffffffffffffffffffffffffffffff16815260200142815260200184815260200183815250908060018154018082558091505060019003906000526020600020906004020160009091909190915060008201518160000160006101000a81548173ffffffffffffffffffffffffffffffffffffffff021916908373ffffffffffffffffffffffffffffffffffffffff1602179055506020820151816001015560408201518160020190805190602001906101dd929190610569565b5060608201518160030190805190602001906101fa929190610569565b5050503373ffffffffffffffffffffffffffffffffffffffff167fc56140e05f516509ae28110e0f72e17558a7561630dad2647c3ae87d986e365c42848460405161024793929190610958565b60405180910390a25050565b600160009054906101000a900473ffffffffffffffffffffffffffffffffffffffff1673ffffffffffffffffffffffffffffffffffffffff166108fc479081150290604051600060405180830381858888f193505050506102b357600080fd5b565b60606000805480602002602001604051908101604052809291908181526020016000905b8282101561048f57838290600052602060002090600402016040518060800160405290816000820160009054906101000a900473ffffffffffffffffffffffffffffffffffffffff1673ffffffffffffffffffffffffffffffffffffffff1673ffffffffffffffffffffffffffffffffffffffff1681526020016001820154815260200160028201805461036c90610ae9565b80601f016020809104026020016040519081016040528092919081815260200182805461039890610ae9565b80156103e55780601f106103ba576101008083540402835291602001916103e5565b820191906000526020600020905b8154815290600101906020018083116103c857829003601f168201915b505050505081526020016003820180546103fe90610ae9565b80601f016020809104026020016040519081016040528092919081815260200182805461042a90610ae9565b80156104775780601f1061044c57610100808354040283529160200191610477565b820191906000526020600020905b81548152906001019060200180831161045a57829003601f168201915b505050505081525050815260200190600101906102d9565b50505050905090565b600160009054906101000a900473ffffffffffffffffffffffffffffffffffffffff1673ffffffffffffffffffffffffffffffffffffffff163373ffffffffffffffffffffffffffffffffffffffff1614610528576040517f08c379a000000000000000000000000000000000000000000000000000000000815260040161051f90610938565b60405180910390fd5b8073ffffffffffffffffffffffffffffffffffffffff166108fc479081150290604051600060405180830381858888f1935050505061056657600080fd5b50565b82805461057590610ae9565b90600052602060002090601f01602090048101928261059757600085556105de565b82601f106105b057805160ff19168380011785556105de565b828001600101855582156105de579182015b828111156105dd5782518255916020019190600101906105c2565b5b5090506105eb91906105ef565b5090565b5b808211156106085760008160009055506001016105f0565b5090565b600061061f61061a846109c2565b61099d565b90508281526020810184848401111561063757600080fd5b610642848285610aa7565b509392505050565b60008135905061065981610c33565b92915050565b600082601f83011261067057600080fd5b813561068084826020860161060c565b91505092915050565b60006020828403121561069b57600080fd5b60006106a98482850161064a565b91505092915050565b600080604083850312156106c557600080fd5b600083013567ffffffffffffffff8111156106df57600080fd5b6106eb8582860161065f565b925050602083013567ffffffffffffffff81111561070857600080fd5b6107148582860161065f565b9150509250929050565b600061072a838361086e565b905092915050565b61073b81610a59565b82525050565b600061074c82610a03565b6107568185610a26565b935083602082028501610768856109f3565b8060005b858110156107a45784840389528151610785858261071e565b945061079083610a19565b925060208a0199505060018101905061076c565b50829750879550505050505092915050565b60006107c182610a0e565b6107cb8185610a37565b93506107db818560208601610ab6565b6107e481610baa565b840191505092915050565b60006107fa82610a0e565b6108048185610a48565b9350610814818560208601610ab6565b61081d81610baa565b840191505092915050565b6000610835601b83610a48565b915061084082610bbb565b602082019050919050565b6000610858602583610a48565b915061086382610be4565b604082019050919050565b60006080830160008301516108866000860182610732565b50602083015161089960208601826108d8565b50604083015184820360408601526108b182826107b6565b915050606083015184820360608601526108cb82826107b6565b9150508091505092915050565b6108e181610a9d565b82525050565b6108f081610a9d565b82525050565b600060208201905081810360008301526109108184610741565b905092915050565b6000602082019050818103600083015261093181610828565b9050919050565b600060208201905081810360008301526109518161084b565b9050919050565b600060608201905061096d60008301866108e7565b818103602083015261097f81856107ef565b9050818103604083015261099381846107ef565b9050949350505050565b60006109a76109b8565b90506109b38282610b1b565b919050565b6000604051905090565b600067ffffffffffffffff8211156109dd576109dc610b7b565b5b6109e682610baa565b9050602081019050919050565b6000819050602082019050919050565b600081519050919050565b600081519050919050565b6000602082019050919050565b600082825260208201905092915050565b600082825260208201905092915050565b600082825260208201905092915050565b6000610a6482610a7d565b9050919050565b6000610a7682610a7d565b9050919050565b600073ffffffffffffffffffffffffffffffffffffffff82169050919050565b6000819050919050565b82818337600083830152505050565b60005b83811015610ad4578082015181840152602081019050610ab9565b83811115610ae3576000848401525b50505050565b60006002820490506001821680610b0157607f821691505b60208210811415610b1557610b14610b4c565b5b50919050565b610b2482610baa565b810181811067ffffffffffffffff82111715610b4357610b42610b7b565b5b80604052505050565b7f4e487b7100000000000000000000000000000000000000000000000000000000600052602260045260246000fd5b7f4e487b7100000000000000000000000000000000000000000000000000000000600052604160045260246000fd5b6000601f19601f8301169050919050565b7f43616e27742062757920636f6666656520776974682030204554480000000000600082015250565b7f4f6e6c7920746865204f776e65722063616e207472616e73666572207468652060008201527f5469707321000000000000000000000000000000000000000000000000000000602082015250565b610c3c81610a6b565b8114610c4757600080fd5b5056fea2646970667358221220226d615df3a17d0d2a9583200a93a755f13fa62d558eb7520930342b501c848f64736f6c63430008040033",
  "linkReferences": {},
  "deployedLinkReferences": {}
}